:020000021000EC
:10900000004000209D130200051402000714020016
:109010000000000000000000000000000000000050
:109020000000000000000000000000000914020021
:1090300000000000000000000B1402000D140200EC
:10904000090F02000F1402000F1402000F14020097
:109050000F14020000000000B9E501000F14020027
:109060000F1402000F1402000F1402000F1402006C
:109070000F1402000F1402000F1402000F1402005C
:109080000F140200AD9301000F1402000F14020030
:109090006D9401000F140200F9E201000F140200A8
:1090A0000F1402000F140200000000000000000076
:1090B00000000000000000000000000000000000B0
:1090C0000090010036DF704737DF704710B503248A
:1090D0000723144010D1094B1A604B1CDB009BB2D4
:1090E000D218074B1A60074B1C70074B1C70074BBC
:1090F0001880074B1980231C181C10BD2C20002041
:10910000302000203720002036200020342000208E
:1091100038200020F0B54A4B87B002921A8801909F
:109120000E1C039309208A4200D287E004ABDF1DA6
:1091300000233B70434B04255B68DB05DB0D21D02E
:10914000103BD9B24AB2002A0DDA0F220A40083A7F
:109150003D4B92089200D21855680322114091406D
:109160002B1CCB4009E09208C03238499200555878
:10917000032213409340DD402B1CDBB29B09DDB280
:10918000012B0DD0381CFFF79DFF022801D172B6CC
:1091900007E0002805D000210A1C01F0EFF900E0EB
:1091A0001D1C2B4B2B4A19782B4B12881C78C9B2EB
:1091B000E4B20020944201D20134E0B288420CD0E3
:1091C0001C781B780021DBB2934201D20133D9B263
:1091D000214B1970012D03D112E0012D2DD01F4C10
:1091E00062B63878FFF770FF0223021C9A4303D05F
:1091F00000210A1C01F0C2F9184B04209C421DD02A
:10920000174F029A3B68E5005B191A60019A002A21
:1092100010D0002E0ED0039B111C1B88321C5C4307
:10922000104B1868001908F07DF93B6800205D19A3
:10923000AE8003E00020988000E0042007B0F0BD7D
:109240003420002000ED00E018ED00E000E100E037
:10925000362000203820002037200020FFFF0000AB
:109260002C2000203020002038B5104C104D2378E1
:109270002A789A4219D00F49237822780888D2B2E6
:10928000DBB20021904201D90132D1B20A4A2170E9
:1092900010880A4A58431268DB001018084A1268FE
:1092A000D31899881B689847E1E738BD362000201D
:1092B00037200020382000203420002030200020DB
:1092C0002C200020174B02205968C905C90D27D052
:1092D0001039CBB25AB2002A0DDA0F221A40083ADE
:1092E000C24082401049521803210B408B40526803
:1092F000DA40131C09E0032092080C4BC0329200A4
:10930000D25801408140131CCB40DBB29B09DBB239
:109310000020012B04D0033B5A4253410220C01AC3
:109320007047C04600ED00E018ED00E000E100E00D
:1093300080221A4B9202DA67D2218022184B520205
:1093400089005A50C22189005A5001212F225960A8
:10935000101C0138C046C046C046C046C046C04684
:10936000C046C046C046C046C046C046F1D199601E
:1093700000230C49101C0B600138C046C046C04693
:10938000C046C046C046C046C046C046C046C046AD
:10939000C046F1D1044A13707047C04604E100E0B2
:1093A000001001403C20002064200020F8B500247B
:1093B000234B5C649C64DC641C655C609C60214B9A
:1093C0001E68731C3BD0204A204B214FD358214AA2
:1093D00015685D1B2D022D0A24235E433B689B19F3
:1093E0005A68954217D3AD1AA4181B4A1E6A126810
:1093F000D96994469A696346002B08D0101CE0474F
:10940000002806D000210A1C01F0B8F801E0081C71
:109410009047731CE0D1114B114A197813788B4295
:1094200005D10133DBB2022B00D100231370137876
:109430000C4A9B009C5080220B4B52035A60F8BD93
:10944000FC100140542000200010014004050000E1
:10945000442000203C2000204020002050200020FC
:10946000512000205C200020FCE100E0F0B5BD4A66
:10947000BD491368BD488BB0029300780B789842C1
:1094800011D00133DBB2022B00D100230B700B781B
:10949000B7499B005B589C46029B63441B021B0A16
:1094A0001360012301E000239C460493B14B1B6829
:1094B0000593B14B1B780193B04B1B680993B04BDC
:1094C0001F681368019A0893AE4B00921B780393B0
:1094D000059B00990139CAB20092FF2A5FD0009A19
:1094E000D100099A51180C784A78A242F1D018227A
:1094F00062438D7801344868E4B22D1B8218681EDF
:10950000854110786D422C40022803D01D1C032891
:1095100043D139E0242052681D1C5043069238186C
:10952000027D0792002A38D01A1C6E1C08D0069EB5
:10953000B54207D024266E43BE192A1C356AF4E7CB
:109540001D1C1EE0AA4200D083E124256B43FB18BA
:109550001D6A6B1C06D101268B4B9E60079B0393F3
:1095600000230893242672434368BA180693036ABB
:1095700013625A1C05D07343FB185A68069E96194D
:109580005E600023037508E06B1C06D024235D4356
:1095900000237D192B752D6AF6E72B1CA4E769467D
:1095A000784A097B734C11706E4A089923601160E8
:1095B000049A002A09D1059A9B1A5A1E9341DBB2DC
:1095C000029301235B42009330E000206C4A242781
:1095D0001268051C03920122524200925A1C21D0AB
:1095E0003A1C5A4303998A1851688C4504D2236067
:1095F0006346C91A516017E06646761AB4464018A9
:109600001669116A556015750491002E08D00299EB
:10961000D66041180902090A91600099009311620D
:10962000049BDBE7534A136001230293514B1B68F1
:109630000393524B039A1B680693514B1B689C463D
:10964000484B1B6805934F4B1B780793019F013FC5
:10965000FBB20193FF2B00D19AE0019BD900069B3E
:109660005918131C009A013207D024220098424353
:109670006244041C106A009026E00A784878904200
:109680006ED0182050434C68013220188C78D2B22A
:109690000A70944201D100220A70027844681E1CAC
:1096A000012A5BD1242262436244157D002D55D1ED
:1096B00086689660C668D660066916614069D061A2
:1096C0000798002800D095609068059D2F4F451B96
:1096D0002D022D0AD668BD4202D8AD19556009E0A9
:1096E000059D281A0002000A864201D9301A00E0BE
:1096F0000020506000209060D0600120242510756B
:1097000001206543404210626544261C5A1C25D046
:1097100024225A43624468685668B04204D8301A1A
:109720005060261C2B6219E01A1C04932426564311
:1097300066447768B84206D9366AC01B0492771C23
:1097400005D0321CF2E73F1A7760161C049A686055
:1097500024202E621E1C424362441462331C81E7A3
:109760001A1C73E73C2000205020002051200020CC
:109770005C20002054200020482000204C200020A5
:10978000442000205820002000100140FEFF7F00F0
:10979000314B1A60039B9A4202D1029B002B53D09B
:1097A000531C4FD024212D4B4A4318682C49821852
:1097B0002C4B2D481B680C5855682C4EE21A12028F
:1097C000120A3778033200920190002F20D18020B6
:1097D000D1274002BF00C851C127BF00C851C022D5
:1097E00080272348BF0252008750076001272F209F
:1097F0000F600138C046C046C046C046C046C0469D
:10980000C046C046C046C046C046C046F1D13770CB
:10981000009AAA4200D22A1CD318A8221B021B0AB3
:10982000D2008B50019A1B1B89581B02091B09028D
:10983000090A03311B0A994206D980220D4B920274
:109840005A6001E0FFF774FD00220B4B1A700BB059
:10985000F0BD1D1C86E6C046542000204420002098
:10986000001001403C20002004050000642000207E
:1098700000E100E0FCE100E058200020F7B50325FE
:1098800001900F1C161C1C1C1D400720002D50D1E0
:10989000002B4ED0FFF74CFD264B089A1A60264B42
:1098A0001F70264B1C6024235F43E7193B1CA74213
:1098B00003D0257025752434F9E70321204A11705F
:1098C000204A00211760182218373C1C72435F6041
:1098D000197059709E7008330020BF18A342F6D14A
:1098E0000122194B52421A60184B80211870184BF4
:1098F000C5241870C023FF25164A49035B00D150C8
:10990000A4001359AB43C0252B431351A12311606D
:10991000019C1149DB00CC50C424A40015590F4B05
:109920002B40C0252D022B4313510D4BCA580D4B14
:109930001A60FEBD4020002052200020442000205C
:10994000482000204C2000205420002050200020DF
:109950005120002000E100E000100140FF00FFFF67
:10996000040500003C200020F0B5104B061C1B68CD
:109970000820002B19D00720002A16D0002E14D062
:1099800000240B480778BC420EDA1D1C2433181C37
:1099900024380078002805D1012369702B70AA6152
:1099A000346002E00134EEE70420F0BD44200020E2
:1099B00052200020F7B5244B051C18680C1C082108
:1099C00000283FD0214B07211B789D423AD2042C1E
:1099D00038D924236B43C31818780821012831D1C2
:1099E0005B780027012B00D1271C161C0194FFF780
:1099F00069FC174BC0001A68121853789178581CEC
:109A0000411A4C1EA1414942084011788C4604215C
:109A1000604517D018214B435168CB180421002B07
:109A200010D001215D6019700A4D0B4969581F6102
:109A3000996001995E61D960507080220021074BC6
:109A400052035A60081CFEBD442000205220002012
:109A50004C2000200010014004050000FCE100E063
:109A600038B51A4B041C1A680820002A2CD0184B51
:109A700007201B789C4227D2242363439B5C082049
:109A8000012B21D1FFF71EFC124BC0001B681B18D5
:109A90005D789A78691C8A1A501E824152421140A0
:109AA0001A78042091420FD018226A43586882180D
:109AB0000420002A08D00220546010708022002068
:109AC0005970054B52035A6038BDC04644200020EF
:109AD000522000204C200020FCE100E010B5041CC6
:109AE000082904D00020011C021C00F047FD60681A
:109AF0002368984710BD000007B5044A0090019103
:109B000068460821FFF706FB0EBDC046DD9A01003E
:109B10008023C0220349DB05D20099500021024A6C
:109B200099507047FFFFFF000406000029DF7047CF
:109B300028DF704737B5021C081C8B680D781C01A4
:109B40000B6949880830009102496458291CA047D4
:109B500037BDC046FC210020F0B55C4C151C1A1C1A
:109B6000237885B0071C002B06D12B1C134301D191
:109B7000022300E00123237023780320013B052BFF
:109B800000D9A0E0181C01920E1C07F08DFC031EEA
:109B90002D6552868023E8205B0519691D691F69C0
:109BA0001B6989B28002019307F032FC6B469A88E8
:109BB0000138ADB2B9B2684371439208FFF7B6FFFE
:109BC0000223002800D17DE07DE0081CFFF7B0FFF4
:109BD000002878D1002D2AD1019B002B23D13B787E
:109BE000042B1ED107231FE08022E82052051369B1
:109BF000116912699BB289B280025E43029207F03A
:109C000007FC6B461B89411E5943301C2A1CFFF779
:109C10008DFF002857D1019B002B04D13B78042BEA
:109C200018D0052300E00423237000204BE0032319
:109C300048E080235B051B697A889BB25E43A800DD
:109C4000801939699208FFF771FF00283BD1019B09
:109C50001D43C7D00623E7E78022E8205205136999
:109C600079889BB202915E431169029B126989B2A5
:109C70008002F618039207F0CBFB6B469B890138F4
:109C80005843AD00029B76192D18E918301C019A33
:109C9000FFF74CFF0028C1D015E08023E8205B05CA
:109CA0001969800289B21D691E6907F0B1FBADB266
:109CB0000138B1B2684307F0ABFBFFF739FF00286A
:109CC00001D10723237005B0F0BDC0461522002046
:109CD000F7B514243C4B1A7854431C190092221CEB
:109CE00026790832271D95680193042E18D0052E79
:109CF0004AD00F20022E66D1344BE288188863695F
:109D0000800219182389121A5D19314B28189A42BA
:109D100001D8920801E080225200FFF707FF4DE0D2
:109D2000802651682B4A0B01D31818895A895B6821
:109D30007605AB4204D1131C4343E288934201D021
:109D400002290AD13169281C89B207F089FB1F4B0F
:109D50001B88C018FFF7ECFE30E03169281C89B27F
:109D600007F07EFB14233269366992B24243011C2C
:109D7000B6B2013046430098AA1A434301989208AC
:109D8000C318DB88EB1814E0802676053169281C9F
:109D900089B207F065FB3269366992B24243238982
:109DA000011CB6B201305B194643E0889A1A92084A
:109DB000C318F31A9B08381CFFF7CEFE002802D107
:109DC0000123019A9370FEBD682000201622002016
:109DD000FF030000FC210020F8B5144D061C6C7830
:109DE00006A807880420142C1FD028782418E4B271
:109DF000132C01D9143CE4B2142044432C196261A1
:109E00000020221C267160710C3241C941C2E380DE
:109E10002781AB78002B01D0002003E0FFF758FF2B
:109E20001128F9D06B7801336B70F8BD68200020E1
:109E3000F7B548498B780C1C002B00D189E0002530
:109E4000454B8D701A78082A07D1022800D0434B61
:109E50001D706378002B4BD17BE0022802D00328D1
:109E600052D076E00E7814213D4871430388611882
:109E700001339BB203800F790190022F04D1CA886D
:109E80009B02934210DA2DE0052F5BD0042F29D1DD
:109E9000C988D71F784278418C46071C9B02291C31
:109EA000634547DA002F4AD000232B4A1370019AEA
:109EB00013806378013B6370731CDBB2132B01D9F1
:109EC000331C133B237014235E43A619311D00205D
:109ED000FFF730FE002301213371F380F16033611D
:109EE000736133816378002B33D0A378002B30D19A
:109EF000FFF7EEFE00282CD011282AD01423217859
:109F000059436118043112E014230A780D20534399
:109F1000CB185A791C1D0132D2B25A71142A05D0BD
:109F2000FFF7D6FE002814D0112812D0211CFFF70D
:109F300001FE0EE00121002AB4D0291CB2E700295D
:109F4000D0D0B1E7D11F4A4251412F1C0029ABD1DB
:109F5000A8E7F7BD68200020152200201422002069
:109F600016220020F7B500230120254A84461380DD
:109F70001A1C244C23706370A370A11D6546881EB3
:109F80000270E0180A80C560026142610281C82047
:109F9000143300260127143140008342EED180257E
:109FA000E820194B6D051E8029692B6989B2800252
:109FB000019307F02DFA6B469B880238584308221C
:109FC000124B1860E820124B80021E601E819E8199
:109FD0005E81104B1A7029692E6989B207F018FA50
:109FE0002D690138B6B2A9B2704307F011FAFFF734
:109FF0009FFD002802D1084BA7701F70FEBDC04610
:10A0000016220020682000200C22002010220020B0
:10A01000FC2100201522002014220020F0B5404B26
:10A0200087B01B780824002B76D00E24002873D02C
:10A03000002971D00368002B6ED0802783887F05AC
:10A0400000933E690724B6B2B34265D80F2B63D99B
:10A05000C388002B60D0334E051C3268E820019283
:10A06000009A03915A439446029239693B6989B236
:10A070000493019B80026344059307F0C9F96B4682
:10A080001B8A01385843059B834245D83B69029A95
:10A090009BB29A4207DD3869009980B207F0E0F977
:10A0A00089B2002938D10323009A07241A40131ECD
:10A0B00032D11D48042402880090012A2CD0039933
:10A0C00001980A60486019491401019F0819476006
:10A0D0002F688C4667508021AF8849050781ED883D
:10A0E00045817D4330680F690133BFB29BB2BD42E9
:10A0F00003D90F69BFB2ED1B00E0002580277F0563
:10A100003F69BFB2C019002DEDD16444A3812C1C5E
:10A11000009B013230601A80201C07B0F0BDC046A1
:10A1200014220020102200200C220020FC210020FC
:10A1300030B5104B1C780823002C19D00E230028B2
:10A1400016D0002A14D00368002B10D10A4D2C68B9
:10A15000002C0CD02C89406861430918688944435D
:10A1600068682418A14202D21360516000E00723FE
:10A17000181C30BD14220020FC210020F7B5041C5F
:10A18000194805780820002D2DD00E2000292AD04E
:10A19000002C28D025680720002D24D1134D2E68CF
:10A1A000002E20D066686F89B4462E896D6877438B
:10A1B0007F19BC4517D2002A15D0B24213D8D51842
:10A1C000B54210DC0325102029420CD12B420AD1C4
:10A1D00066462E4207D11D1C0220131C00950A1C46
:10A1E000211CFFF7F9FDFEBD14220020FC210020F8
:10A1F000F7B5041C194805780820002D2DD00E2035
:10A2000000292AD0002C28D025680720002D24D131
:10A21000134D2E68002E20D066686F89B4462E89B3
:10A220006D6877437F19BC4517D2002A15D0B2421A
:10A2300013D8D518B54210DC0325102029420CD1C3
:10A240002B420AD166462E4207D11D1C0520131C45
:10A2500000950A1C211CFFF7BFFDFEBD1422002043
:10A26000FC210020F0B50D1C111C244A85B0127889
:10A2700002930824002A3DD00E24002D3AD0002855
:10A2800038D02C68002C32D11D4E3268002A2ED0D6
:10A29000378973896A687B439C4673689C4462452E
:10A2A00025D2002923D0B94221D8029BCB18BB422A
:10A2B0001DDC03239C4618421BD1029F1F4218D16C
:10A2C0006746131C3B401F1E13D1029B0391991834
:10A2D000039A029007F026F9039A2B6800921B015B
:10A2E000F658281C03213A1C029BB04702E00724C1
:10A2F00000E01024201C05B0F0BDC0461422002050
:10A30000FC21002073B5154B041C1B780D1C082084
:10A31000002B21D00E20002C1ED023680720002BFC
:10A320001AD10F4A1368002B16D05668118952892A
:10A3300063684A43921993420ED210209A070BD1B8
:10A34000981B07F08DF807200A1E05D10091042004
:10A35000211C2B1CFFF740FD76BDC04614220020B7
:10A36000FC210020064B1A780823002A06D00E2371
:10A37000002803D0034B5B7803600023181C704750
:10A38000142200206820002077DF704747DF7047E5
:10A3900011DF704713DF704713B50322041C5049C7
:10A3A00001A807F0BFF84F4B002C00D189E0002234
:10A3B0001A70692C48D014D8612C2ED008D8422CA1
:10A3C00075D1494806F040FF012006F005FF74E012
:10A3D000622C2FD0682C6AD1444806F035FF4448DF
:10A3E00069E06C2C50D002D86B2C3CD05FE0722C12
:10A3F00056D0762C5BD13F4806F026FF3E4BD868FE
:10A4000006F022FF3D4806F01FFF3D4806F01CFF06
:10A410003C4806F019FF3C484DE03C4806F014FF6C
:10A420003B4B186806F028FF2E2006F0F5FE394B4E
:10A43000186815E004F09EF9041C374806F004FF84
:10A44000201C06F029FF38E080243448640506F01B
:10A45000FBFE606E06F010FF2E2006F0DDFE206E83
:10A4600006F00AFF29E02E4806F0EEFE2D4C237878
:10A47000002B01D02C4800E02C4806F0E5FE01221C
:10A4800023785340237018E0294806F0DDFE06F0DB
:10A49000E5FB002802D1274806F0D6FE26480AE050
:10A4A00080220121254BD205D150254803E0201CF4
:10A4B00006F0B2FE234806F0C7FE01A806F0C4FE6F
:10A4C00013BD1A78002A01D1012202E0012A01D12C
:10A4D00002221A701B78022BEFD104F079FFECE70F
:10A4E000591A02000D27002082170200B51702003A
:10A4F000F6170200B41802001C320020BF18020038
:10A50000CA180200D6180200DB1802006017020009
:10A51000A8000010A4000010681702003E180200F6
:10A5200044180200EC2700205718020062180200AD
:10A530006C1802007318020078180200440500002D
:10A5400080180200E418020070B50A4E04AC2578A9
:10A55000367805AC2478AE420AD1074D2D78A54255
:10A5600006D10C1C111C1A1C06F0DCFF0123237001
:10A5700070BDC046F4270020F827002070B5061CE7
:10A58000141C0D1C114806F05FFE301C06F074FE12
:10A590000F4806F059FE0F4806F056FE201C06F044
:10A5A00053FE0D4806F050FE281C06F075FE0B4BBE
:10A5B0001E600B4B1D600B4B1C60BFF34F8F0A4A94
:10A5C0000A4BDA60BFF34F8FFEE7C046EF18020078
:10A5D000591A02001C19020020190200183200202A
:10A5E00054320020103200200400FA0500ED00E093
:10A5F00013B5144C2378002B0AD0134B1868FFF7BF
:10A600002FFA002803D000210A1CFFF7B7FF2070A3
:10A6100000220E4B191CD8331A600D4BD4311B7815
:10A620000A60012B0AD10B4B08211B786846009267
:10A63000019204F0FBFC04F0ABFE01E004F0C8FE64
:10A6400013BDC04608280020F02700201027002056
:10A650000C270020F827002038B5FFF799FE184D89
:10A66000041E286002D000210A1C08E0E8208002B5
:10A67000FFF790FE2860002803D0211C221CFFF762
:10A680007DFF8021C0220F4BC90352009950012148
:10A690001A680D4C0B1C83401A4200D0E36701304E
:10A6A0002028F7D18022B121084BD205D150BFF329
:10A6B0004F8F074A074BDA60BFF34F8FFEE7C04664
:10A6C0001432002000E100E004E100E01C0500007D
:10A6D0000400FA0500ED00E0F7B50025324B0095C7
:10A6E0001B780195AB425DD0304C231C221CD43327
:10A6F000D8321B6812689A420ED12D4C2378AB4297
:10A7000050D02C4B1868FFF7ABF9A84202D0291C97
:10A710002A1C36E0207045E00A22694653431A5D40
:10A720000A70E218D1798D4207D2281CEA18A218C3
:10A730005278684482700135F5E71F4B68461A78F5
:10A740001E4B08211B7804F071FC1D4E051E1CD108
:10A75000271CD4373B681421581C06F081FED834DE
:10A760002368013139608B421BD1114C2378002BB7
:10A7700017D0104B1868FFF773F9051E03D000219E
:10A780000A1CFFF7FBFE20700BE03368984208D0EC
:10A790000C4806F059FD281C06F06EFD0A4806F02C
:10A7A00053FD3560F7BDC0460C2700201027002060
:10A7B00008280020F0270020F4270020F827002098
:10A7C000FC27002024190200591A020010B5104B72
:10A7D0001B78022B1AD00478002C09D000200D4AD7
:10A7E000011CFEF797FC002810D000210A1C0BE08A
:10A7F0004378002B0AD0201C211C074AFEF78AFC54
:10A80000002803D0211C221CFFF7B8FE10BDC04653
:10A810000D270020D9100200FD100200F8B5037AC0
:10A82000041C002B1ED0C379042B1BD1FFF7E0FEC4
:10A830002378212B04D1514806F006FDFFF70CFFC9
:10A840004F4D504C022B05D14F4806F0FDFC012323
:10A850002B7005E04D4806F0F7FC01232B70002318
:10A86000237088E0657A002D05D0494806F0ECFC9D
:10A87000FFF7BEFE7FE0474B1B78002B22D0E37929
:10A88000012B78D16278082A06D1434A1378002B2D
:10A8900071D0013B13706EE00A2A0AD13F4806F0DE
:10A8A000D3FC3F4804F0B8FB002864D0291C2A1CC4
:10A8B0005DE039490B78052B5DD8581C0870384984
:10A8C000CA5458E0374B1B78002B03D12E2006F0DA
:10A8D000A3FC1EE0344806F0B7FC207806F0CCFC60
:10A8E000324806F0B1FCE07906F0C6FC304806F0CC
:10A8F000ABFC251CE3792A1B01359A4206DA20209D
:10A9000006F08AFC287806F0B7FCF3E7234806F047
:10A910009BFC284F14213E1CD8363568681C06F075
:10A920009FFD3B1CD4331B680131994203D122485F
:10A9300006F08AFC1FE00A225543211C781906F014
:10A94000F1FD33681421581C06F08AFD1B4D0131BE
:10A950002C783160002C0ED1F621194B4900186873
:10A96000221CFFF727F8002803D0211C221CFFF728
:10A9700005FE01232B7006F0EBFBF8BD2719020042
:10A98000F5270020FB270020331902003A190200A6
:10A9900041190200F6270020F7270020591A02006B
:10A9A00000280020EC27002053190200651902003E
:10A9B00071190200102700208519020008280020C4
:10A9C000F027002008B5031C0A1C0020191CFFF703
:10A9D000D5FD0000F8B52B4C061C00213822201CA8
:10A9E00006F0E2FD284B01222360284B002563601E
:10A9F000274B6283E360274BA5602383264B2561A9
:10AA0000A3820223A375E1182377244BCA77A3847A
:10AA10000223FF33E385231C192130331D70231CCF
:10AA20006185D22132331D70231CA185032131336E
:10AA30001970A2184B21D5770622194BE2841970A0
:10AA40004221102259709D70164B2285E577A5771B
:10AA5000657765631868144F391C06F06FFE134B59
:10AA600013486363211C231DDE77276104F0BEF9C0
:10AA7000104B1860A84203D0291C2A1CFFF77EFD4A
:10AA8000F8BDC0461C3200208A1902009B19020042
:10AA9000A219020018500000D1180000C1030000E4
:10AAA00000200020A40000101822002049A5010069
:10AAB000B9AA010014320020F7B5041C00780D2853
:10AAC00000D93CE106F0FAFC0E006400DF006F00E4
:10AAD000D40098002B01AB00AD00AF00C500CC0046
:10AAE0003401E8009B4F9C484C2101223B1C04F0A0
:10AAF00039FC041E00D0B0E00823984E38780121BC
:10AB000000930196221C231C04F030FC051E18D172
:10AB1000012338780093F318019302212A1C2B1C7F
:10AB200004F024FC041E00D0D2E002257619387807
:10AB3000032100950196221C231C04F017FC002819
:10AB400003D0211C221CFFF719FD03F013FE041C87
:10AB500004F0A6FA031C061CAB4308D0804806F09C
:10AB600073FB301C06F098FB7E4806F06DFB7E48B8
:10AB700006F06AFB201C06F08FFB7C4806F064FBA5
:10AB8000012004F095FA002867D1FFF7FDFBDFE014
:10AB9000774806F059FB96200122764BC0001A70C8
:10ABA00006F07EFAD4E06379032B04D1724806F0F4
:10ABB0004BFBA068C7E0022B00D0C9E06F4806F04D
:10ABC00043FBA06806F058FB6D4806F03DFBA36808
:10ABD000187806F051FB6B4806F036FBA07906F0BA
:10ABE0004BFB694806F030FBE07906F045FB67480F
:10ABF00006F02AFB2079A6E0654806F025FBA08830
:10AC000006F04AFB634806F01FFBE08806F044FBB1
:10AC1000614806F019FB208906F03EFB95E05F488D
:10AC200094E05F4892E0302106225E4806F0BCFCCA
:10AC3000002005F067FE01225B4B5C481A70002281
:10AC40005B4B1A705B4B191CD833D4310A601A6005
:10AC50007CE0594806F0F8FA584800210A1C72E7CF
:10AC6000012005F04FFE00224F4B55481A706DE051
:10AC7000544806F0E9FA207906F0FEFA524806F048
:10AC8000E3FA60795FE0514806F0DEFA0022394BC2
:10AC90001A7004F09DFB5BE04D4806F0D5FA4D4C70
:10ACA0002578002D0AD000254B4806F0CDFA2570F6
:10ACB0004A4C2078FFF78EFE257049E0484B1B7800
:10ACC000022B24D1FFF764FB464E041E306003D0F4
:10ACD000201C291C2A1C36E7E8208002FFF75AFBBB
:10ACE0003060002800D02CE78021C0223E4BC903F1
:10ACF0005200995001211A683C4C0B1C83401A42A7
:10AD000000D0E36701302028F7D105F067FD38480F
:10AD100006F09AFA0020011C06F0F0F918E0354818
:10AD200006F092FA04F054FB00222A4B1A700FE04E
:10AD3000314806F089FAFFF75BFCFFF78DFC2F48DE
:10AD400006F082FA207806F097FA084806F07CFAB6
:10AD5000F7BDC046F4270020201B0200F827002082
:10AD6000AB190200B2190200BE190200591A020002
:10AD7000D31902000C270020D9190200E2190200A1
:10AD8000EB190200F2190200FA190200001A02007F
:10AD9000061A02001D1A02002E1A0200451A0200AD
:10ADA0004C1A020000280020F62700205C1A02003E
:10ADB000F727002010270020721A0200ADDE0000E5
:10ADC000801A0200931A0200831902009D1A0200E1
:10ADD000A71A0200F5270020B21A0200FB27002064
:10ADE0000D2700201432002000E100E004E100E023
:10ADF000C41A0200D01A0200DA1A0200E61A02008F
:10AE0000F0B58FB0FEF784FE8027AF230126DB006C
:10AE1000FF05FE50A02303214C4ADB0599504C4A04
:10AE20000C2099504B4A9950E7220221D2009950A8
:10AE30008021A1220903D20099501421464AFEF72D
:10AE400045F9051E02D000210A1C0BE0434B0B21E3
:10AE500000930A22424BFEF711FD041E04D0201C71
:10AE6000291C2A1CFFF78AFB301CFFF78FFA3D4D87
:10AE7000211C281CDC2206F097FB2B1C3A48D433FB
:10AE8000D835311C394A2C601C60FEF76DFD051E5B
:10AE90003CD10A2003F0D2FCFF208024021C1821A0
:10AEA0001C23009506F008FAE400314806F0CCF9BE
:10AEB000385906F0E1F92F4806F0C6F93B59301C25
:10AEC0003B512D4905F070FE041EC8D105F024FD4C
:10AED0002A4806F0B9F9201CFFF77CFD284806F047
:10AEE000B3F9284B03AD6B60274B281CAB600223E2
:10AEF0002B709623DB002B6203236B6220232349F4
:10AF00002C76AB6206F060F8002802D0211C221CCF
:10AF1000A8E77620FFF740FA6120FFF73DFA6220AC
:10AF2000FFF73AFA6C20FFF737FA194CFEF79CF955
:10AF3000281C06F057F9002805D02878FFF72CFACE
:10AF4000201C06F081F906F0B5F8EFE74C07000089
:10AF500034070000440700000C280020F99A010083
:10AF60002422002010270020F0270020D9A601006D
:10AF7000EB1A0200591A02001DA80100FD1A020076
:10AF80000A1B0200650C020031F60100CDA701008A
:10AF9000151B020072DF704779DF70477DDF704755
:10AFA00065DF7047F0B50024061C251C87B00C9F98
:10AFB00000933B7803910292019333889D423ADAE1
:10AFC0007368A9005918042205A806F0ABFA04AB6F
:10AFD00005A8D91C0022FFF7E3FF002835D104ABF8
:10AFE000DB78029A934222D16242624102993B7815
:10AFF000520059188A181F2A1BDC002C07D16946F9
:10B000009A1C3A700133009A097BDBB2D15404AB2D
:10B01000DC1C3A78009B05A89A18211CFFF7C0FF9A
:10B02000002812D1237801243A78D3183B700135D7
:10B03000C3E70C2009E00020844206D03B78019A47
:10B04000013B9B1A0199009A535407B0F0BDF7B524
:10B05000089E171C00960222051C1C1CFFF7A2FF6D
:10B06000002806D10096281C391C1022231CFFF74B
:10B0700099FFFEBD0023F0B51370037889B0061C5C
:10B080000D1C141C002B03D1B378002B4BD029E0EE
:10B0900043780C201D2B00DD50E10E2704ABFF1878
:10B0A0001D23881C391C3B80FFF778FF002800D047
:10B0B00044E13378022B03D13B8809221D2B08D9A8
:10B0C0007378002B03D09BB208221D2B01D90822D4
:10B0D0003B88DBB2591C29706A70227802329B18B7
:10B0E0002370D1E723780C201B2B00DD26E10E27EF
:10B0F00004ABFF18381CFFF74FFF002800D01DE1FC
:10B1000023785A1C22700322EA5423785A1C227096
:10B110001922EA5423783A88EB181A70120A5A70E6
:10B12000237802332370F378002B0ED023785A1C37
:10B1300022700222EA5423785A1C22700122EA5417
:10B1400023789A182270F278EA547368002B12D090
:10B150001A7823780C201C2B00DDEFE0591C21709D
:10B160000221E9542378591C21700A21E9542378DB
:10B17000591C2170EA543389002B03D1338A002BE8
:10B1800016D00AE0301C00940830022106222B1C45
:10B19000FFF75DFF0028F1D0D0E0301C00941030A4
:10B1A000032107222B1CFFF752FF002800D0C5E027
:10B1B000338B002B0AD0301C009418301421152238
:10B1C0002B1CFFF744FF002800D0B7E0336A002BA8
:10B1D00049D022780C20049206321F2A00D9ADE013
:10B1E00019880720052900D8A8E0554A554F8A1824
:10B1F00092B2BA4200D8A1E05A880392052A00D838
:10B200009CE04F4FBC469444674602AA97819789B9
:10B21000BC464C4FBC4500D890E04B4FB94205D0DE
:10B22000039ABA4202D0914200D987E0049A049965
:10B230000132227005226A542278511C2170122199
:10B24000A95422781988AA181170090A5170227815
:10B250000232D2B222705B88AA1813701B0A537094
:10B26000237802332370776A002F29D03A79217826
:10B27000931C881CDBB2C3180C201F2B5EDC4B1CFC
:10B28000033223706A5423785A1C2270FF22EA5436
:10B2900023783A88EB181A70120A5A70237802330E
:10B2A000DBB22370BA88002A0AD0B96807200029C7
:10B2B00044D0E81806F036F9BA882378D3182370FA
:10B2C000331C2C3305931B78002B01D1002035E073
:10B2D000B36A002B31D000230493059B049A1B789A
:10B2E0009342F3D90C27049B22785F43B36A511C25
:10B2F000DF193B7921700333AB5423785A1C227039
:10B300001622EA5423783A88EB181A70120A5A70F7
:10B3100020780230C0B22070BA88002A09D0B968FB
:10B3200000290AD0281806F0FDF8BA882378D31827
:10B330002370049B0133DBB2CEE7072009B0F0BDD8
:10B340007FF3FFFF7DF30000FFFF0000F0B593B037
:10B350006B466A469E1D0023D71D0D1C33703B7043
:10B36000984204D0C3785B070FD407201DE0041C6B
:10B37000002D03D0EB78002BF7D10EE02A1C31789A
:10B380003B78201CFFF706FE0FE002A9321CFFF7F6
:10B3900071FE02AC0028EBD007E03A1C281C0AA979
:10B3A000FFF768FE0AAA0028E9D013B0F0BDA0DFBD
:10B3B0007047A2DF7047A3DF7047A4DF7047A6DFA6
:10B3C000704713B50B88112B05D0502B07D0102BCD
:10B3D0001ED18B8801E001235B42438218E0037D8C
:10B3E000002B15D0CC884289944211D1CB8B022BF3
:10B3F0000ED10268002A0BD08B1CDB7F0131C97F84
:10B400001B020B43012101AC99432170211C904781
:10B4100013BD0000F0B50B680124036001235B42FB
:10B4200043820A7993B003745B4B0275071C021DBB
:10B430000D1C201C04A98C700B80FFF7B8FF011CA9
:10B44000061E00D0A4E03B7D002B0FD002AE0322ED
:10B45000301C06F0A9F8102306221C4334706B7BC5
:10B460007370B378934302221343B3700BAE301C56
:10B4700000211C2206F098F80220327801210243B4
:10B4800010203B7D8243194009010A433270591E46
:10B490008B4100225B427260F260326102AA1A4064
:10B4A00000237261B3616A46012393753B4B00210F
:10B4B000938203A8032206F077F86A46AB7B06ACBA
:10B4C0001373EB7B00215373937B06229343022279
:10B4D00013430822934310229343012293436A4665
:10B4E00093732B7B201CD370142206F05DF805AB00
:10B4F000069303AB6360012323810023638101234F
:10B50000A3816B4603332361311CB888BB1D221C09
:10B51000FFF74FFF061E3BD1AB68002B37D06A46C2
:10B52000012393751E4B311C938203A8032206F05E
:10B530003BF86A462B7CA968137300235373937BF3
:10B54000062293430222134308229343102293437B
:10B55000012293436A4601A8937301F099FB051CED
:10B56000311C1422201C06F01FF83A1C05AB236086
:10B5700003AB6360ADB201AB66812581A581236118
:10B58000F8880E32211CFFF716FF061C00E0F88138
:10B59000301C13B0F0BDC0460F180000192A00007F
:10B5A00008290000F0B589B06B46D971DF1D037C16
:10B5B000051C002499422ED002AE211C0822301C0A
:10B5C00005F0F2FF012333803B78E9882B74688A09
:10B5D000321C74807760FFF7F0FE041C011E1AD144
:10B5E0006A8A0E4B08249A4215D02B7D002B12D06C
:10B5F00004AC201C102205F0D7FFEB88211C23800F
:10B600000123A3707388A660A3807368E360688ACF
:10B61000FFF7D5FE041C201C09B0F0BDFFFF0000A1
:10B6200075DF704776DF70477ADF70477BDF7047E2
:10B63000F7B52E4B18882E4B984256D02D4A2E4CDB
:10B6400013780133DBB21370217B99422DD32B4940
:10B65000FFF7E6FF051C2A4F2A4E002D45D0A369AF
:10B66000002B42D0112D09D1274805F0EDFD2748C8
:10B670000021274AFEF778F9051CEEE7381C05F093
:10B68000E3FD1C4B187805F0F7FD301C05F0DCFDE0
:10B69000204805F0D9FD281C05F0EEFD301C05F012
:10B6A000D3FD281CA3699847D7E700231370237C98
:10B6B000002B13D03B21FFF7B5FF051E0ED0A36969
:10B6C000002B0BD0144805F0BFFD281C05F0D4FD5D
:10B6D0000C4805F0B9FD281CA36998476369002B45
:10B6E00003D0002201A802709847F7BDDC29002092
:10B6F000FFFF0000BA290020BC290020DE2900201D
:10B70000831B0200591A02006C1B0200D82900207A
:10B7100031B60100931B0200A91B020037B5184B7C
:10B72000184A5B881188184C184D99420CD85288D9
:10B730009A4209D36369002B03D0012201A8027049
:10B74000984700232B7037BD2B78002B05D06369F9
:10B75000002BF6D001A80022F1E70D4B1B78002B3F
:10B7600001D1616800E0A1680A4B00221868FEF769
:10B7700021F90028E5D0A369002BE1D1E1E7C0461B
:10B78000B2290020DE290020BC290020B029002099
:10B79000BA290020D8290020144938B5021C0B1CF6
:10B7A00032CA32C332CA32C31268114C1A60002244
:10B7B000104B01681A70201C914213D0082205F02A
:10B7C000B1FE201CFFF730FF00280ED1012200211E
:10B7D000094B52421A80094B094A0A481970FEF770
:10B7E000C3F802E0FFF722FFEEE738BDBC290020D6
:10B7F000DE290020B0290020DC290020BA29002001
:10B8000031B60100D829002008B5024B1868FEF7B0
:10B8100027F908BDD829002010B50388112B19D0AD
:10B8200002D8102B05D043E0122B3AD0502B21D058
:10B830003EE0011C82881F4B16311A801E480822E8
:10B8400005F070FE00221D4B1A701D4BDB899342E0
:10B850002ED12BE00122174B52421A800022174BA7
:10B860001A70184B1868FEF7FBF8002820D0144B0C
:10B870009B6912E0124CC188E289914218D1C38BB6
:10B88000022B15D10130C37FDB070FD40D4B186895
:10B89000FEF7E6F800280BD0A369002B08D09847E4
:10B8A00006E0811D0822044805F03CFEFFF736FF44
:10B8B00010BDC046DC290020B2290020BA29002092
:10B8C000BC290020D829002037B5144C011C0822BF
:10B8D000201C05F027FE201CFFF7A6FE211C051EDC
:10B8E0001AD10F4B22885B889A4202D862889A420A
:10B8F0000AD201240B4B1C700B4B1888FFF790FEEB
:10B900000A4B051C1C7007E0094B5B69002B03D038
:10B91000012201A802709847281C3EBDDE290020A4
:10B92000B2290020B0290020DC290020BA290020FB
:10B93000BC290020A0DF7047A2DF7047A5DF704759
:10B94000A6DF7047A8DF704763DF7047F0B50E24AD
:10B9500099B0002800D10DE1002900D10AE14B681F
:10B96000002B00D106E101235B420380029101908C
:10B970008249102208A805F0D5FD0A21804B06ADAA
:10B980002B8004AB08A8C918FFF7DEFF041E00D007
:10B99000F0E0019B01201A1D291CFFF7CBFF041EBC
:10B9A00000D0E7E0AB78019A11AD9371211C1C2205
:10B9B000281C05F0F9FD04222B786C6013432B70D2
:10B9C000019BEC602C616C61AC619B7904AA937360
:10B9D0006C4B05AF9381211C0322381C05F0E4FD5C
:10B9E000002301223B701023134306227B70BB7897
:10B9F0000CAE934302221343082293431022934335
:10BA00000122211C1343301C1422BB7005F0CCFD15
:10BA100007AB0C931423B381019B3481748134618F
:10BA200077609888291C321C0833FFF785FF041EB5
:10BA300000D09FE0211C1C22281C05F0B5FD082227
:10BA40002B786C601343102213432B70019BEC6026
:10BA50002C616C61AC619B7904AA93734A4B211CE5
:10BA60009381381C032205F09FFD00230F223B70B9
:10BA70007B78211C9343012213430F221340102291
:10BA8000134306227B70BB78301C9343022213437E
:10BA90000822934310221343012213431422BB7044
:10BAA00005F082FD07AB0C931723B381019B348112
:10BAB0007481346177609888291C321C1033FFF739
:10BAC0003BFF041E56D1211C1C22281C05F06CFDD6
:10BAD00002222B786C6013432B70019BEC602C616D
:10BAE0006C61AC619B7904AA9373284B211C9381F0
:10BAF000381C032205F058FD0F223B78211C93438C
:10BB0000012213430F221340102213433B700023E2
:10BB100006227B70BB78301C934302221343082219
:10BB2000934310229343012213431422BB7005F068
:10BB30003BFD07AB336002233381B381029B7481E9
:10BB40003361019B77609888291C321C2033FFF7F2
:10BB5000F3FE041E0ED1029B5B680393039A019BC4
:10BB60009A62029B9B68002B01D0019AD36201224A
:10BB7000074B1A70201C19B0F0BDC046C01B020054
:10BB8000301500003215000031150000341500009A
:10BB9000E6290020F0B5051C87B00E20002D23D02B
:10BBA0002C88124B08209C421ED0114B1B78002B76
:10BBB0001AD0104E1023717069468F1D032102ACFC
:10BBC0003980B27000211A1C201C337005F0ECFC87
:10BBD0002B8A288823800123A3700023211CA380A3
:10BBE000A760E660FFF7ACFE07B0F0BDFFFF000006
:10BBF000E6290020E8290020F0B589B0002800D10E
:10BC0000B0E0002900D1ADE0826A002A00D1A9E0AD
:10BC10000B88112B1AD004D8102B00D0A2E08B88EF
:10BC200016E00D1C041C502B02D0512B12D099E0B1
:10BC3000C9880389994200D094E0082304A90B70B5
:10BC4000EB8B20350B718D6090478BE001235B42BD
:10BC5000038087E08A79022A00D083E00A89038A78
:10BC60009A4200D07EE08B7A043B022B00D879E028
:10BC7000022301AE0021082204AF301C3B7005F006
:10BC800093FC02233380002373806B46736020880B
:10BC9000A18A321CFFF752FE002804D0E36A002B71
:10BCA00005D0984703E06B461B78DB0707D4FE23DB
:10BCB0002088FF33391CBB80FFF744FE4CE0B8807E
:10BCC000391C2088FFF73EFE002845D1EB1CD97FA8
:10BCD000481E07283CD805F0E7FB040E1B1D1F215A
:10BCE0003423002333702B8C012B02D8201C01211C
:10BCF00008E0012308E0012333702A8C9A4203D81C
:10BD0000201C0221062225E023353371B5601AE09C
:10BD1000022317E0032315E0042313E0052311E0B9
:10BD20002B8C022B02D8201C082112E06B1DDB7F1C
:10BD30000435EA7F1B021343B3805A425341063352
:10BD400000E009233370A36A201C311C984709E0E6
:10BD5000201C0322FFF71EFF002803D0E36A002BFC
:10BD600000D0984709B0F0BDA0DF7047A2DF704750
:10BD7000F0B593B003900191171C0293002903D1F1
:10BD8000081C0A1CFEF7FAFB002F04D1381C391CD2
:10BD90003A1CFEF7F3FB0BAC201C00211C2205F023
:10BDA00003FC02222378002513436A460126928968
:10BDB000237004AB9A80291C181C03229E716560B5
:10BDC000E56025616561A56105F0EEFB029B04AAB3
:10BDD0001B78291C1370029B5B78537093780622A2
:10BDE000934302221343E7221340B34304AA06AE4F
:10BDF0009370301C142205F0D7FB05AB069304ABFF
:10BE00007360019B211C3361054B321C1888189B01
:10BE100037817581B781FFF7A9FF13B0F0BDC04628
:10BE2000382A002010B5041C012086B0544B03A909
:10BE3000544A88700B80FFF797FF002800D09DE0E0
:10BE40002288002A03D12289002A16D00AE04E4B0C
:10BE50004E480093231C61683C33FFF789FF00289C
:10BE6000F1D08BE04A4B4B480093231CE1683C33F4
:10BE7000FFF77EFF002800D080E0228A002A09D048
:10BE8000454B46480093231C61693C33FFF770FF24
:10BE9000002873D1228B002A09D0414B41480093DE
:10BEA000231CE1693C33FFF763FF002866D1228C35
:10BEB000002A09D03C4B3D480093231C616A3C3367
:10BEC000FFF756FF002859D1228D002A09D0384BA0
:10BED00038480093231CE16A3C33FFF749FF0028F0
:10BEE0004CD1236B002B1AD01A7804A90A705A7807
:10BEF00031484A709A788A70DA78CA701A790A7169
:10BF00009B681A0A4B711B0CCB712C4B8A710093E6
:10BF1000231C08223C33FFF72BFF00282ED1636B34
:10BF2000002B03D1A06B00280CD127E019681A79E7
:10BF3000234B24480093231C3C33FFF719FF0028B0
:10BF4000F0D01BE0037804A90B7043881E4A4B70A5
:10BF50001B0A8B708388CB701B0A0B71C3881B482C
:10BF60004B711B0A8B71231C00923C330722FFF795
:10BF7000FFFE031C0020834200D0181C06B010BD39
:10BF80000A180000382A0020082A0020292A000068
:10BF9000F8290020242A0000282A0020252A000051
:10BFA000202A0020272A0000302A0020262A00000C
:10BFB000F0290020282A0000232A0000002A00205F
:10BFC000102A00202A2A0000182A0020502A0000E7
:10BFD000A0DF7047A1DF7047A2DF7047A3DF704783
:10BFE000A4DF7047A6DF704765DF7047F0B50768CC
:10BFF00087B00C1C002F10D0111C0422061C01ADB0
:10C0000002A82A7005F08EFAA38B301C2B81E38BDB
:10C0100020346B81EC60291CB84707B0F0BD0000EC
:10C02000F0B5022793B00BAC0E1C01900021201C30
:10C030001C2205F0B9FA237800253B432370012325
:10C0400002AA9372204B291C138103A80322656066
:10C05000E56025616561A56105F0A6FA331C3433FE
:10C060001B7802AA1371331C35331B783036537199
:10C0700006239279291C9A43E72317431F40012383
:10C080009F4302AB9F71338805AF3B701B0A7B70E7
:10C09000B3781422BB70F37806AEFB70301C05F049
:10C0A00083FA04AB069303AB736004233381B3813B
:10C0B000019B7581376118896733FF33211C321C5E
:10C0C000FFF78AFF13B0F0BD4A2A000070B5138B4A
:10C0D00086B0022B11D10568002D0ED00123032656
:10C0E000041C927E02A81340F31A042201AE33709E
:10C0F00005F018FA201C311CA84706B070BD0000DE
:10C10000F0B5102695B002931AAB019204CB0090C3
:10C110001B780D1C03930B78334211D005AC03221E
:10C12000201C002105F040FA012306221E431A9B21
:10C1300026701B786370A378934302221343A37085
:10C140000DAF00211C22381C05F02EFA10222B788E
:10C1500000263B701340591E8B4105AA5B421A40D2
:10C1600001237A6104AA9373394B06AD9381311C84
:10C170000322281C7E60FE603E61BE6105F014FA59
:10C18000062201211A9B08AC5B78201C2B701A9B9D
:10C190009B786B70AB789343039A0A4002210B4360
:10C1A0000821D2008B431343102293430122311CF8
:10C1B00013431422AB7005F0F7F907AB08936B46F5
:10C1C0009B88391CA381009B221C18881C9B2681FC
:10C1D000668126616560FFF7FFFE061E35D10123EB
:10C1E00004AA93731B4B311C9381281C032205F076
:10C1F000DBF906221A9B311C5B78201C2B701A9BE2
:10C200009B786B70AB7893430222134308229343CD
:10C2100010229343012293431422AB7005F0C4F91A
:10C2200007AB029904A80893656000F031FD04ABE8
:10C2300023611C9B80B21A1C2081A08108321888BF
:10C24000211C6681FFF7CAFE061C301C15B0F0BD2C
:10C250004D2A000008290000F0B595B005AF161C66
:10C2600001900291381C00210322039305F09CF9F0
:10C2700001221023134306223B7033780DAC7B70F0
:10C28000BB78201C93430222002113431C22BB7065
:10C2900005F08AF90F22B17823780A40511E8A41AD
:10C2A00002210B430821D2008B4313431022134376
:10C2B0002370012304AA9373131C6A460025128974
:10C2C000676106AF9A81291C381C03226560E5600E
:10C2D0002561A56105F068F906227378291C3B7079
:10C2E000B37808AE7B70BB78301C934302221343B3
:10C2F0000822934310229343012293431422BB70DC
:10C3000005F052F907AB08930823B381019B211C68
:10C310001888321C039B7760358175813561FFF782
:10C320005BFE15B0F0BD0000F0B50B8887B0112B97
:10C3300031D0041C112B02D8102B06D02FE1502B2A
:10C340002FD0512B00D1A6E029E1BB228B885200CF
:10C3500083524389002B00D121E16B46012701ADB7
:10C3600000210822281CDE1CDF7005F01DF90023C7
:10C370006B80BB232F806E605B00E05A61892A1CB2
:10C38000FFF72EFE002800D109E16368002B00D1E1
:10C3900005E1984703E10122BB2352425B00C252F0
:10C3A000FDE0B7204000CB88205A8A1D984213D167
:10C3B000138B012B00D0F2E02568002D00D1EEE0B8
:10C3C000937E002B02D0012B00D0E8E001AA13706D
:10C3D000201C01A9A847E2E06089984216D1138B7E
:10C3E000012B00D0DBE02368002B00D1D7E0927E48
:10C3F000002A04D0012A00D0D1E0062100E0052166
:10C4000001AA1170201C01A99847C8E0A92040008A
:10C41000205A984202D101A9624B12E0A7204000A5
:10C42000205A984206D15F4B01AA138000239370D3
:10C43000D3701DE0B1204000205A984209D15A4BD8
:10C4400001A90B8000238B70CB70201CFFF73EFEF0
:10C45000A5E0AF204000255A00209D4203D0251CB6
:10C46000A67C183508E0504B01AA13809070D0705C
:10C47000201C83E00130C0B2B0423FD00A352F1CEF
:10C480000A3F3F889F42F5D1484B01A90B80012309
:10C49000C8708B70D9E78A79012A00D07FE0251C0B
:10C4A00000220889A67C1435D3B2B34206D22F8865
:10C4B00001320A35B842F7D1012262E0231C251C63
:10C4C000002278331E787A35D3B2B34206D22F8851
:10C4D00001320A35B842F7D1022252E0231C251C52
:10C4E0000022DE331E78E035D3B2B34257D22F8814
:10C4F00001320A35B842F7D1032242E0221C002063
:10C500001432B0420DD00A32151C0A3D2D889D42CE
:10C5100004D1264A01AB1A8001222BE00130C0B2BF
:10C52000EFE7221C0020783215780232A8420DD0A5
:10C530000A32161C0A3E36889E4204D11B4A01ABC1
:10C540001A80022216E00130C0B2EFE7221CDE3270
:10C5500015780020023201E00130C0B2A8421ED09E
:10C560000A32161C0A3E36889E42F5D10F4A01ABAC
:10C570001A800322D870201C9A7001AAFFF736FD9A
:10C580000DE02668002E0AD0072001AD287007486C
:10C59000AA71A880EB71201C0591291CB04707B037
:10C5A000F0BDC046222A0000332A00004D2A0000B8
:10C5B0000722F0B58B7A9DB004920A2B00D9AEE227
:10C5C0000B7C0A2B00D9AAE20B7E0A2B00D9A6E22B
:10C5D0000A68059002604A680D1C42608B7A837479
:10C5E000031C0A7C78331A700A7E66331A700122A3
:10C5F000BB2352425B00C2520120CE4B0AA90B80E2
:10C60000059B887008331A1C0693FFF7E1FC049021
:10C61000061E00D083E22B1C36331B7815ACB342C8
:10C620000DD9059BAA6B18897300995A221CFFF734
:10C63000D1FC002800D04DE10136F6B2EBE7002333
:10C6400004932B7A002B06D16B7A002B03D1AB7AA3
:10C65000002B4AD183E000211C220226201C04F07A
:10C66000A3FF0422237822213343134323700123A1
:10C67000002704AA52181370AF4B04AA1384391C64
:10C6800003220BA86760E76027616761A76104F078
:10C690008BFF2B1C3C331A7804A90A775B788A7FBE
:10C6A0004B7706239A43E72316431E4001239E43FC
:10C6B0008E7710AE391C1422301C04F075FF012255
:10C6C00009AB1A700CAA10920BAA72600122336196
:10C6D000059B3281B28177811889211C321C0A3373
:10C6E000FFF77AFCB842B2D0F4E00026EB68B34220
:10C6F00035D0AB7AB34232D915AFEB6800210122B5
:10C70000F400381C1C1904F04FFF02223B780598F6
:10C7100013433B700F23A2791A40511E8A4108210E
:10C720003B78D2008B431343102213433B70211DEF
:10C7300022880091E179A31CC907C90FC9B20191F0
:10C740000A2171434118143102910698391CFFF7F0
:10C75000D7FC002800D0BDE00136F6B2C9E72B7C3B
:10C76000002B04D000266B69B34200D0D8E02B7EAA
:10C77000002B00D0D8E0022615AC00211C22201C82
:10C7800004F012FF2378002733432370012304AA07
:10C7900093776A4B391C938309A803226760E7608B
:10C7A00027616761A76104F0FFFE2B1C2C331B7807
:10C7B00004AA13752B1C2D331B78391C53750623C3
:10C7C000927D9A43E72316431E4001231E4304AB88
:10C7D0009E7510AE1422301C04F0E6FE0BAB1093D5
:10C7E00009AB7360AB8C77813381B3812B6A211CD9
:10C7F0003361059B321C18894533FF33FFF7ECFB8F
:10C80000B84200D011E1EB1DDB7F002B00D1C1E06D
:10C81000AB6A061C002B00D109E1EB1DDB7F9E42B9
:10C8200000DAB9E02B7A002B00D007E16B7A002BFD
:10C8300000D064E10598291CFFF7F2FB0490002862
:10C8400000D06CE115AC04991C22201C04F0ACFE55
:10C85000042223780127134322222370049B0BAE6A
:10C860006360E36023616361A36104AB9B181F7085
:10C87000334B04AA138404990322301C04F094FE61
:10C8800006223E352B78022133706B7810AD737021
:10C89000B378281C9343E7220B4313406A46BB43FB
:10C8A000127CB37004AB1A750499142204F07CFE58
:10C8B0000CAB10936B461B8A6E606B8109AB2B61CE
:10C8C000059B2F81AF8118896F33FF33211C2A1CF0
:10C8D000FFF782FB049022E115AF6B690021012272
:10C8E000F400381C1C1904F05FFE0E233A78211D59
:10C8F00013433B7022880091E1790598C907C90F5D
:10C90000C9B201910A21714341187A310291A31CE5
:10C910000698391CFFF7F4FB0028DBD10136F6B28C
:10C920002B7CB342D8D822E70026EB69B3422DD145
:10C9300021E7C046121800004E2A00004B2A0000D2
:10C940004C2A000015AFEB6900210122F400381CCD
:10C950001C1904F029FE0A233A78211D13433B7069
:10C9600022880091E1790598C907C90FC9B20191E0
:10C970000A217143E03141180291A31C0698391C29
:10C98000FFF7BEFB0028A5D10136F6B22B7EB342DD
:10C99000D8D8F0E61E1C40E7012404AB9C77614B1D
:10C9A00009AF04AA938300210322381C04F0FCFD84
:10C9B000202323433B70002306227B70BB78022197
:10C9C0009343E7220B431340A343BB70AB6AB00011
:10C9D0001818132304AA9B18191C0CAAFFF704FBB0
:10C9E0000790031E1ED110AC191C1422201C04F049
:10C9F000DBFD0BAB109304ABDB7C6A462381A38188
:10CA00000CAB2361A223928B67606281059A5B0065
:10CA1000D05A4D32211CFF32FFF7E0FA002804D132
:10CA20000136FAE6079B049303E0049001E0072334
:10CA300074E0049B002B00D1F4E670E02A1C059BF7
:10CA400006984F33FF3338494332FFF705FC079010
:10CA5000031E62D115AC191C1C220226201C04F0F6
:10CA6000A3FD0822237822213343134304221343D6
:10CA70002370049B04AA6360E36023616361A36184
:10CA8000012352181370294B0BAF04AA1384079982
:10CA90000322381C04F088FD2B1C46331B78062229
:10CAA0003B702B1C47331B7807997B70BB789343F3
:10CAB0001E4308239E4310239E4301239E43BE70C2
:10CAC00010AE1422301C04F06FFD0CAB10936B46BB
:10CAD0001B8A776033816B461B8A211C738101237B
:10CAE000B381049B321C3361059B18895733FF3394
:10CAF000FFF772FA0490002800D197E60FE02A1C95
:10CB0000059B06985F330A494032FF33FFF7A4FBC9
:10CB10000490002800D18DE601E0079B049304985F
:10CB20001DB0F0BD07290000222A0000322A0000B3
:10CB3000332A0000F0B589B000920193837C051C74
:10CB40000F1C07208B422AD9BB235B00EA5A154BE6
:10CB500008209A4223D002AB9E1D6B4604AC1B8872
:10CB60000021201C1022338004F01EFD0A235F43A5
:10CB7000EF19BB8A211C23800123A3700023A3800B
:10CB8000019BA660E360BB235B00E85AFFF72AFA2B
:10CB9000002804D13388009A934200D00C2009B0B9
:10CBA000F0BDC046FFFF0000BB23F0B589B05B00BD
:10CBB0000192C25A134B061C0F1C08209A421FD028
:10CBC00004AC02ABD980201C002110229D1D04F072
:10CBD000EBFCA7235B00F35A211C23800123A370E5
:10CBE0000023A380019BA560E360BB235B00F05A98
:10CBF000FFF7F8F9002803D12B88BB4200D00C20A6
:10CC000009B0F0BDFFFF0000F0B5071CBB204000DD
:10CC10008BB03E5A1D4D141C10AA12880820AE423B
:10CC200032D0D01C01906846858802A8861D3580C8
:10CC30000C20082D28D804AD29706C70AB70002A28
:10CC400005D00B2002ABC018119904F06BFC06ACA8
:10CC50000021201C102204F0A7FCAF235B00FB5A2C
:10CC6000A66023800123A3700023A380BB23E5607B
:10CC70005B00F85A211CFFF7B5F9002804D133886E
:10CC8000019A934200D00C200BB0F0BDFFFF0000D2
:10CC90000B7803704B7843700220704738B5041C42
:10CCA000081C0D1C04F0CCFC6560208038BD7FDFC3
:10CCB000704782DF7047A7DF7047A9DF7047AADFA0
:10CCC0007047002070470020704700207047002008
:10CCD0007047002070470020704700207047000018
:10CCE000F0B585B0041C0F1C02AA81782248FDF71C
:10CCF0001FFA00283ED10C236678204A5E4395191E
:10CD0000AB7A01925B0605D4022F03D0012F03D02A
:10CD10001B4D02E01B4D00E01B4D1C26A1781B4B58
:10CD2000714302A85918321C0023A847002813D1C8
:10CD3000022F1FD00C234021627802A85343019A8E
:10CD4000D3189A7A8A439A726178114B7143321CD4
:10CD50005918331CA84701E0022F0BD00C2322786E
:10CD600002A853430B4A211CD3189B7A0A4A9B0002
:10CD70009B58984705B0F0BD042B00204E2A002098
:10CD8000C3CC0100F1A101007DA101005C2A0020BB
:10CD9000B02A0020F42A0020D01B0200F7B5282278
:10CDA0000190437829485A4381184C68284F002C39
:10CDB0000FD00C2159437918897A4DB2002D07DA2A
:10CDC000490605D4151C0835A6B24519145802E0C9
:10CDD0000024261C251C0C225343FB181889291CEF
:10CDE000321C231CFFF769FF0B2818D10C22019B72
:10CDF000291C5B785343FB181889321C0123FFF769
:10CE00005CFF00280ED00C21019B124A5B784B433B
:10CE1000FF183889FFF74FFF00280AD115E00028D6
:10CE200003D100E00124002000E00B48012C0CD1CC
:10CE3000E9E70222094BC318934303D0082801D025
:10CE4000112801D1044800E00020FEBDCC2A0020BA
:10CE50004E2A0020FFFF000041800000FECFFFFFB0
:10CE600008B5FFF79BFF08BD2023F0B58DB002AADF
:10CE7000D3800C2201904B780E1C5343254A04A901
:10CE8000D318188902AB9A1D0323FFF718FF002857
:10CE90003CD128247078204F604302AB0830DA88F8
:10CEA000381804A904F014FB3D1C737800280DD138
:10CEB0000C225A4317498A18917A0222114025D12F
:10CEC0006343221CF81804F06FFB1FE05C433C191D
:10CED0006268002A01D1114F00E0114F282403227B
:10CEE0006343EA5002ABDA88737804A96343EB1812
:10CEF0005A60707860430830281804F013FB71788A
:10CF000001986143221C69183823B84700200DB0EE
:10CF1000F0BDC0464E2A0020CC2A00207DA1010091
:10CF2000F1A1010008B5FFF79FFF08BD70B52824E7
:10CF3000031C4878094D60430E1C2818191C221C3C
:10CF40003823FDF78FF9002806D173785C432C193C
:10CF50006368013300D1606070BDC046CC2A0020F8
:10CF600008B5FFF7E3FF08BDF0B5504C95B0256854
:10CF70000294002D00D197E01A9C782C00D993E000
:10CF80000024161CFF221D1C05AB5A709A70DA7023
:10CF90001C701A9B08AF019103903C700D950C9387
:10CFA000A1B2434806AAFDF7C3F8002809D10398A7
:10CFB00006A9082204F08CFA002802D105AB9C7067
:10CFC00002E00134032CEBD105ACA378FF2B6BD02E
:10CFD000019908AA042907D11A9B782B01D1202393
:10CFE00000E04023137045E03249691A532910D8F4
:10CFF0003149002E04D1012098400D68054253D0DC
:10D0000001209840031C086898432023086013708F
:10D010003EE02A49691A1B2908D8202313700023EF
:10D0200063700EAB0D9318230C9331E02448291A3A
:10D0300027290ED830233B70002363700123E3704F
:10D04000204B997A0223194022D1282204F0ACFA0D
:10D050001EE0402111701C4A95420BD01B4A9900DA
:10D060008A58AA4220D1174AD27A9A4210D1002374
:10D0700063700DE0032108AA13780B4313700BAB08
:10D080000993029B201C1B6808A9321C98470BE0DF
:10D09000019A08AB032A02D11A78012101E002218A
:10D0A0001A780A431A70EAE715B0F0BDF42A002096
:10D0B000042B00205C2A0020002B0020B02A002036
:10D0C000CC2A00204E2A0020001C02003C2A00200E
:10D0D00070B51C2444430F4E051C3019002134192F
:10D0E0000622113004F060FA201C0021102204F006
:10D0F0005BFAFF232374A37601235B42238301237E
:10D10000AB40054AAD001168994311600022034B02
:10D11000EA5070BD5C2A0020002B00203C2A002031
:10D1200037B581B2051C6A460748FDF701F8041EB1
:10D1300008D168467821FDF7E5F8041E02D1281CC5
:10D14000FFF7C6FF201C3EBD042B0020F0B585B0C4
:10D1500000285CD00127002601252E4B041C2E48F8
:10D160007F421E605E729E72311C0781C772072269
:10D17000857204F019FA311C2822284804F014FAA8
:10D18000301CFFF7A5FFFF23254E281C3370FFF747
:10D190009FFF02207770FFF79BFF78236A469380FA
:10D1A0000323B7701F4FD3801F4B6846391C009371
:10D1B000FCF734FF00282BD11C4B24781D701D1C5C
:10D1C000002C1AD11A4FA1B2164802AAFCF7B0FFE0
:10D1D000061E0BD11C22101C604302A93818331CF8
:10D1E000FDF740F8002804D02E7011E000232B70CA
:10D1F0000EE00134032CE6D10AE06B466A46DB8878
:10D200009188381C594389B2FDF77CF800E0094841
:10D2100005B0F0BDF42A00204E2A0020CC2A0020C0
:10D22000482A0020042B002069CF01004C2A00204E
:10D230005C2A00200E800000F8B5174B1B78002BED
:10D2400024D0002824D0002922D00B68002B1FD026
:10D25000124D2C68002C1DD1061C281C0F1C08C068
:10D260000531052204F05EF90120022104223B79F8
:10D27000AB722B7A83430B4393432B72EB790343BB
:10D280000B439343EB71201C347004E0044802E02C
:10D29000044800E00448F8BD4C2A0020F42A00208D
:10D2A000088000000E80000004800000F0B5254BCF
:10D2B0001B78002B25D0002821D000291FD00B6817
:10D2C000002B1CD08B68002B19D00378002B18D1B1
:10D2D0001D4A1268002A14D01A1C1C1C1B481C4D25
:10D2E000EF7ABB420FD1AF7A02252F420BD0013328
:10D2F0001C30032BF3D10C710A73002020E0154879
:10D300001EE015481CE00F7BBA4209D20125877E3A
:10D310002F4205D18D6897007851104DAB540132E2
:10D320000F79BC42E3D20225877E2F42DFD1102540
:10D33000AC46844466460D68A7007E510134D6E7AA
:10D34000F0BDC0464C2A0020F42A00205C2A0020B0
:10D350004E2A00200E80000008800000482A00208D
:10D3600008B50A4B1B78002B0ED000280AD0037892
:10D37000002B09D1064B1B68002B05D08078FFF7E6
:10D38000CFFE02E0034800E0034808BD4C2A00201D
:10D39000F42A00200E8000000880000038B5104BF1
:10D3A0001B78002B19D0002815D00478002C14D13C
:10D3B0000C4B1B68002B10D0201C0B4D1C2363430F
:10D3C000EB189B7EFF2B02D0201CFFF7A9FE013437
:10D3D000032CF3D102E0054800E0054838BDC04603
:10D3E0004C2A0020F42A00205C2A00200E80000035
:10D3F0000880000037B5214B1B78002B3AD000285D
:10D4000036D0002934D00378002B33D11C4B1B6855
:10D41000002B2FD04378002B2ED11A4B9B7A012B57
:10D420002AD08278022A27D81C235343164AD318BD
:10D430009B7EFF2B20D00C1CC968051C00290AD03C
:10D44000A268531E1E2B06D82378012B03D10F4848
:10D45000083004F067F8A9786A460D48FCF768FEC2
:10D4600023780C4A9B009B586846291C984704E087
:10D47000094802E0094800E009483EBD4C2A002066
:10D48000F42A00204E2A00205C2A0020CC2A00200A
:10D49000042B0020D01B02000E800000088000003A
:10D4A000108000007FB5294B051C1B78002B48D04D
:10D4B000002844D0002942D08B68002B3FD003784D
:10D4C000002B3ED1224B1B68002B3AD08378022BD5
:10D4D00039D81C225A431F488218927EFF2A32D024
:10D4E0004A680720032A2FD90C1C1B4899B202AAAC
:10D4F000FCF71EFE002827D101A802A904226423FC
:10D50000FCF7B0FE002804D1019B013301D0134E7B
:10D5100000E0134E211D02A804226423B047002816
:10D5200012D102A8A16810226823FCF761FE00282E
:10D530000AD1AB78A1680B4A9B00995004E00A48D5
:10D5400002E00A4800E00A4804B070BD4C2A0020FE
:10D55000F42A00205C2A0020042B0020F1A1010005
:10D560007DA101003C2A00200E8000000880000000
:10D57000108000001FB5244B1B78002B3DD00028E5
:10D5800039D0002937D00378002B36D11F4B1B68C8
:10D59000002B32D08378022B31D81C225A431C4CEA
:10D5A000A218927EFF2A2AD08C681A4A9B00002C6F
:10D5B00002D1D3588B6000E0D4500C1C02AA8178B1
:10D5C0001548FCF7B5FD00281CD101A802A90422CA
:10D5D0006423FCF747FE002813D1019B013310D0D0
:10D5E000A06802A910226823FCF73CFE002809D19C
:10D5F000019B636006E0094804E0094802E009482D
:10D6000000E0094804B010BD4C2A0020F42A002094
:10D610005C2A00203C2A0020042B00200E80000001
:10D620000880000010800000408000001FB51E4BE5
:10D63000041C1B78002B31D000282DD00378002B40
:10D640002CD11A4B1B68002B28D08178022927D8AF
:10D650001C204843164B1818837EFF2B20D089B21C
:10D66000144802AAFCF764FD00281AD1642301A81B
:10D6700002A90422FCF7F6FD019B013311D002A898
:10D680000D4904226423FCF7B3FD002809D1A378D7
:10D690000A4A9B00985004E0094802E0094800E06B
:10D6A000094804B010BDC0464C2A0020F42A0020CE
:10D6B0005C2A0020042B0020001C02003C2A0020D1
:10D6C0000E8000000880000010800000002806D0B6
:10D6D000FF23037043708370C370002000E0014893
:10D6E0007047C0460E80000010B5194A031C12781E
:10D6F000002A29D0002825D0002923D00478002C26
:10D7000022D1144A1268002A1ED09A78081CFF2AD7
:10D710000AD15978FF2919D00C2359430E4B5918B7
:10D720008B7A9B0712D508E01C21022451430B4B36
:10D7300059188B7E1C4009D11031072203F0F2FEEC
:10D74000201C04E0064802E0064800E0064810BD40
:10D750004C2A0020F42A00204E2A00205C2A0020B7
:10D760000E800000088000000580000013B5041C36
:10D7700081786A460B48FCF7DBFC002810D11C239B
:10D780006078094A5843694610181A1CFCF76AFD6C
:10D79000064B074A9B7A68469B009B58211C98477A
:10D7A00013BDC046042B0020B02A0020F42A00201C
:10D7B000E01B0200F0B5FF24C34B8FB01B7803942D
:10D7C000002B00D1D4E1C14B1A680093002A00D18C
:10D7D000CEE105AF031D7B602A2300223B81038835
:10D7E00004AD6C70AC70EC70061C2A70B84C102B39
:10D7F0000AD0A27A8188900766D5B648814208D0BF
:10D800002089884260D104E00121A37A0B4205D12E
:10D81000AEE1E17AA9700021697055E00223A3729C
:10D8200011236A703B708388871D23810722201C87
:10D83000391C03F077FE0123327D134006D0A64B3E
:10D8400052089B5CFF2B32D0039330E01C1CA34E8C
:10D850001C20604310303018391C072203F038FEBA
:10D86000002801D1039422E00134032CF0D102E01E
:10D87000F379034240D10024009B05AE1B68281CAD
:10D88000311C221C98473378122B00D070E190484D
:10D89000837A012B00D16BE10123837201235B4268
:10D8A0000381C3720021072203F07EFE60E108209D
:10D8B000874A039B917ADBB20143D3729172281C91
:10D8C000AB70FFF753FFD6E7172B5FD1012704207A
:10D8D0001424009B00995B7A8243BB434B727C4BC0
:10D8E00005A90C709A72B479191C002CC0D0D87A92
:10D8F000FFF716FCB479BFE7AC78FF2CBBD0082348
:10D900001A43F37A8A729B0706D51C236343734A32
:10D91000D3189A7EBA439A76CB7AFF2BABD01C26CB
:10D9200066436E4F0B78BE19022B09D0301C0722BC
:10D93000103003F0F7FD0222B37E9343B37606E086
:10D940000121674B5B8A3383B37E8B43B37600261A
:10D950000197A6420FD0019B9B7EDB070BD41C20B6
:10D96000604301993818102203F0B2FD002802D15B
:10D97000301CFFF7D5FB019B01361C330193032EAE
:10D98000E7D1281C0121FFF7ABF974E7172B00D969
:10D99000B7E0132B5BD113233B7004231A43E37AC4
:10D9A000A272FF2B2CD14D4B9B7EFF2B0BD04B4BF0
:10D9B00036331B78FF2B08D0484B022752331B7895
:10D9C000FF2B2BD102E0002700E001272378FE2265
:10D9D000022B09D01C207843404B07221818103026
:10D9E000211C03F09FFDFD221C237B433B49CB18E8
:10D9F0009A7603AB1F70039BDBB2AB70E3720BE054
:10DA0000162338482022083000213B7003F0CCFD5B
:10DA10004022A37A1343A372002400E0324C002179
:10DA20002B4B0B91DA7A1C2353432C4A0D91D318BC
:10DA30000C932B4B09910893009B0A911A1DB088F7
:10DA400008ABFFF734F9002800D115E790E0142B5C
:10DA500029D1E37A214FFF2B1AD1F389398B9942CF
:10DA600009D0B98E994208D0391C503109889942A1
:10DA70000ED1022302E0002300E0012308210393DA
:10DA80000A43DBB2E372A272281CAB70FFF76EFE92
:10DA9000E37A0021FF2B00D01149B0883A1C002303
:10DAA000FFF707F964E0112B62D10223111C99439F
:10DAB000A17212071AD54BB2002B1EDA281C0021C6
:10DAC000FFF70EF919E0C0464C2A0020F42A002086
:10DAD0004E2A0020FFFF0000482A00205C2A002078
:10DAE000B02A0020CC2A002043800000A878FF281C
:10DAF00003D0FFF7EDFAFF23AB701023A3721223BC
:10DB000002E01C2B02D113233B70B4E6522B07D149
:10DB1000009B184A9B7A281C9B009B58984727E03B
:10DB2000182B25D1B379112B14D1130712D5124814
:10DB300020220830002103F037FD162360223B70BD
:10DB4000A37A13430222A372009B5B7A1343009AC9
:10DB5000537290E680235B421A4315233B70009B6F
:10DB6000A2729B7A034A9B009B58281C984782E626
:10DB70000FB0F0BDF01B0200CC2A0020A12303212E
:10DB80000B4ADB00D150802300210A4A9B00D15070
:10DB9000094B5961012111615969064A0029FBD0DD
:10DBA000002305494B6153601360044A138070479A
:10DBB00000F0014000100040FC100040162B002037
:10DBC000A8220021124BD20030B59950A722114C47
:10DBD000D2009C50104C114A03259C50A124104A9D
:10DBE000E4001268520002321A510E4A0E4C9C5048
:10DBF00080240E4AA40051601D51884203D0116157
:10DC000001225A6003E00A4A11680A4A995030BD5D
:10DC1000001000405B060000555555003C05000013
:10DC2000182B0020040500001D2B0020FC100040D4
:10DC30001C2000200C050000002238B5434B0121B8
:10DC40005A608022D20511605A68002AFCD0002256
:10DC500001213F4B3F481B6880245960D9601A500E
:10DC6000181CFC3042648264C2640265C1206402F4
:10DC700080001C50802080001950A2200424C00085
:10DC80001C50A820344CC0001C508224334864002F
:10DC90001C501960324B1A60324B1B681B0716D49C
:10DCA000314B324A1968324B9950324A1168E52299
:10DCB000D2009950304A1168304A9950304A116860
:10DCC000E622D20099502F4A11682F4A99502F4BC3
:10DCD00004201D68FC232C1C9C4335D12B1C2833AD
:10DCE000DBB22C2B30D8FFF749FF214B284A032108
:10DCF0009D50A222FF20D2009950264A9958814374
:10DD0000712099509958014399502349234A04207E
:10DD10009950A6210122C9005A502149FF305C5078
:10DD2000204958508420204940005850A3211F48C2
:10DD3000C90058501021201C1D4B1C701D4B1A701F
:10DD40001D4A13690B43136138BDC046FC000040F7
:10DD500014200020040500007102000044050000AA
:10DD6000442B0020AC000010EC0000102407000041
:10DD700000100040F0000010F40000102C0700001C
:10DD8000F8000010FC000010340700001C200020E8
:10DD90000C05000024050000002941761C05000048
:10DDA0002C050000340500001405000025000300C8
:10DDB0001C2B0020142B002000ED00E0102138B5B2
:10DDC0002F4A304D1369304C0B4313612F4A304BAF
:10DDD0001169002936D000211161C02202202D498D
:10DDE000520088502A78042A2CD101225A608022BD
:10DDF000D2009B58012B20D10F2321786278194043
:10DE000081421AD8252A18D800290AD12018224977
:10DE100003F05EFB002810D1204A138801331380E1
:10DE20000BE0012900D055230021C8B29042F3D263
:10DE30000131601840789842F7D0201C0021272239
:10DE400003F0B2FB164B1B68FC335A6C002A02D05D
:10DE500000225A64BAE7996C0029B7D09A64114B32
:10DE6000012219781F230B409A40131CC022094934
:10DE700052008B500C4B1A68501C186038BDC046BD
:10DE800000ED00E0142B00201D2B0020FC100040B2
:10DE90000010004000E100E0041C0200162B0020EE
:10DEA0001420002018200020442B00200021044BC7
:10DEB0001A781970034B1B880360101C7047C0460A
:10DEC0001C2B00200C2B0020084A031C1278002079
:10DED000012A09D81A1C2832D2B22C2A04D89A074F
:10DEE00002D10120024A13607047C046142B002063
:10DEF0001C2000200E4B1A780023012A16D89842C5
:10DF000004D10C4A0C4B1A6008220CE0012804D101
:10DF10000A4A094B1A60092205E0022806D1084A7C
:10DF2000054B1A600A22074B1A700123181C704710
:10DF3000142B00200080004014200020009000409E
:10DF400000A0004018200020F7B56D46041CD0B298
:10DF500001902D7960480127057000255F48036016
:10DF60005F4801605F4807705F4805805F48007840
:10DF7000844666460520AE4200D1ABE0AC420DD1EE
:10DF8000A8235B4ADB00D450A1225A4BD2009F50F9
:10DF9000A222D2009C50584A9C501BE0032C1ED158
:10DFA000012E04D10123504A0220138092E0534BEA
:10DFB000534A1B8813434C4A1380A8234C4ADB0066
:10DFC000D550A1224B4BD2009F50A222D2009D508F
:10DFD000494A9D50FFF7D2FD444B1F7079E06046DF
:10DFE000012EDFD1272902D93F4B1E8072E0434822
:10DFF0000580012C09D1291C2722424803F0D4FABC
:10E00000201CFFF7DDFD042361E0281C022C61D1F8
:10E010000198252803D9344B03201E805AE00F2491
:10E02000181C384D20402870684600796870281CFC
:10E03000012B0BD0002B04D0022B0AD001330DD0C2
:10E040002EE03149023003F06DFA2EE0A81C211CAD
:10E0500001E05521023003F0A7FA26E00020032A50
:10E0600038D8101C03F020FA020212180020FFF723
:10E07000A7FDA82103221E4BC90080205A50012170
:10E08000800019501960194B1A7022E0081CFFF724
:10E090001BFF002807D01CE0081CFFF72BFFF8E748
:10E0A0000123114A1380042014E00020FFF788FDAB
:10E0B000A221164BC9001A680E4B4132FF325A504A
:10E0C0000B490D4A99500121114A99500223074AE0
:10E0D00013700020FEBDC046152B0020102B002021
:10E0E000182B00201C2B00200C2B0020142B0020B0
:10E0F0000010004000F0014014050000162B002025
:10E100000080FFFF1D2B0020041C020014200020B3
:10E110000405000010B51A490B78012B19D1194BD1
:10E120001B681B0715D1184BE0241A68F023101C3C
:10E13000184022420BD1154A12681A4209D1144ADA
:10E14000144B1A608022144B12021A6001E030282E
:10E15000F1D00978012912D10A4B1B681B070ED197
:10E16000F022094B1B681340402B08D1074B1B685A
:10E17000134204D1C1238022DB00D205D15010BD4F
:10E18000E00F00F0E40F00F0E80F00F0EC0F00F0FB
:10E19000DFFF07C004050040186C00402EDF704709
:10E1A00051DF704710DF704711DF704761DF704744
:10E1B00008B5081C111CFCF705FC08BDF0B5274B81
:10E1C00085B01B78002B47D0254D264E2B68346830
:10E1D0005A425341DBB2009363425C41E4B2009B7C
:10E1E000002B37D103A8FFF7DBFF05280AD0002852
:10E1F00004D000210A1CFCF7C1F905E003982B6844
:10E20000984701E001230093002C1FD1164B03A96E
:10E210001B8801240B80154B1B68181C0193FFF70A
:10E22000C5FF071E052F0BD0002805D000210A1CB2
:10E23000FCF7A4F9002403E00198336898473C1CDC
:10E24000009B002BCED0002CC9D005E0009B002BFA
:10E2500002D1C7E7002CD9D005B0F0BD482B002073
:10E26000502B0020542B00204A2B00204C2B002048
:10E2700038B5041C0720002913D08D0711D1094897
:10E2800001600949201C0A80084A09491360FFF708
:10E2900089FF002805D10122064B16201A70FFF7CE
:10E2A0007DFF38BD4C2B00204A2B0020582B00202E
:10E2B000B1E10100482B002008B5FFF775FF031CF2
:10E2C0005A1E9341014ADBB2137008BD482B00204F
:10E2D0000E23002802D0024B18600023181C704740
:10E2E000542B00200E23002802D0024B186000237C
:10E2F000181C7047502B002008B5074B1B68002BDB
:10E3000007D09847002806D000210A1CFCF736F9F0
:10E3100001E0FFF753FF08BD582B002008B5002986
:10E3200004D00020011C021CFCF728F9FFF746FF6F
:10E3300008BD0000002008B5011C024AFAF7EAFEF9
:10E3400008BDC0461DE30100A023EF220021DB052C
:10E35000D20070B5012099501D1C20220426094CC2
:10E36000011C9140214204D0111CC131FF318900B0
:10E370004E51013AF4D2A321034AC9005A5003492D
:10E380005A5070BD5300C022AC9F05080C05000018
:10E39000A023A321134ADB05C90070B55A500028F9
:10E3A00004D0A121C9005A50022001E00E495A5060
:10E3B0000422A0262023012400040C4D0243F6056C
:10E3C000211C9940294204D0191CC131FF31890018
:10E3D0008A51013BF4D2EF23A022DB00D205D050BA
:10E3E00070BDC046AC9F05080C0500005300C0225C
:10E3F000A223A0220120D205DB00D3589B0F984313
:10E400007047000030B5A024202301210B480C4D9B
:10E41000E4050A1C9A40024204D01A1CC132FF32A1
:10E4200092001551013BF4D2A023A321054ADB053C
:10E43000C9005A50A121C9005A5030BD5300C02212
:10E4400004000200AC9F05080022F0B587B00A70F6
:10E450000D230292A02203900193D205A325019BD4
:10E460003A48ED005C1E019469D3394B394CD050C9
:10E4700010515051D050019C374BE35C0124261CB5
:10E480009E405651A125ED005651C046A223DB0007
:10E49000D5582E02F60FA640AF0927403E432F1C49
:10E4A000AB07DB0F9B001E43EB06DB0FDB001E43BD
:10E4B0002740AB003F01DB0F3E435B0133436E025D
:10E4C000F60FB6011E43AB01DB0FDB01019D3343A9
:10E4D000224EAD00AB51002BC0D0019D0026EF00B5
:10E4E0001F4D0594ED1904950825013D17D3059F8F
:10E4F000AF401F42F9D00F78052F0ED8049C675DFE
:10E50000BC466446039F3C703C1C013403940C7869
:10E51000A4460124A44464460C700136E5E7012EAC
:10E5200009D9029C1C4206D0A323A022DB00D205FD
:10E53000D050002007E00298184302908EE7A023F5
:10E54000DB055851012007B0F0BDC046AC9F05085F
:10E550001C0500000C050000941C02005C2B002030
:10E560002C1C0200F0B50023042A1AD1082502262B
:10E570000127041D0178132901D13B430AE0042936
:10E5800001D1334306E00C2901D1134302E01529E0
:10E5900000D12B430130A042ECD10F3B5A425341F2
:10E5A000DBB2181CF0BD2EDF704732DF704733DF5F
:10E5B000704712DF7047000070B52D4C6368002B68
:10E5C00003D1A368002B0FD10AE00025294E656016
:10E5D000337A9D42F5DAAB009B5998470135F7E74E
:10E5E000E368002B11D10CE00025214B214E9D60EA
:10E5F000337D9D42F4DAAB00F318DB6898470135B0
:10E60000F6E72369002B18D10DE00025184B194EB1
:10E61000DD60731CDB7F9D42F3DAAB00F3189B696E
:10E6200098470135F5E7BE23134A5B00D15800290E
:10E630001DD000240F4DD4500EE000240C4B0D4D86
:10E640001C612B1C2C331B789C42ECDAA300EB18CA
:10E650005B6A98470134F4E72B1C38331B789C42E3
:10E6600005DAA300EB181B6B98470134F4E770BD83
:10E67000FC600040902B00200060004037B5002077
:10E680006B46164CDD1DD8712378834224D1281C9B
:10E69000FFF78FFF00281FD12B78012B0AD1032110
:10E6A0000620FFF784FF0620FFF77FFF0620FFF715
:10E6B0007AFF0EE0C1210A4A89005058094B0340F5
:10E6C000C020000403435350C0214023490053504D
:10E6D00013600123002023703EBDC046CC2B0020D8
:10E6E00000E100E0FFFF00FF30B50723042838D821
:10E6F0000C2242431C4D0423AA18147A012C30D852
:10E70000032343431B199B00013414725951C12444
:10E710004A1E91410138C9B2144A0023A4000328BB
:10E7200004D8251C02F0C0FE060A101410484360ED
:10E73000115116E00E484900836002E00C48890040
:10E74000C360515100230CE00948C9000361F8E798
:10E75000002901D0802109061151BE210023490062
:10E760005350181C30BDC046902B00200060004064
:10E77000FC6000408122F8B52648274B5200C25069
:10E78000A0230124DB00C4508022A023A121002566
:10E79000C900DB0592035A5020494D6004604C6863
:10E7A0001C48002CFBD01E4901255A50A123DB0038
:10E7B000C3581C4C45605C431B4802F045FD201CBF
:10E7C00002F06AFD194802F03FFD194B64209C429B
:10E7D0001ED82B1C174A990089588C4214D9164808
:10E7E0005D1EC65C475D601AFA24AD00AB58A400FC
:10E7F000591A604302F034FEBF1B7843211C02F01B
:10E800002FFE3018C0B203E00133072BE3D1002004
:10E81000F8BDC0460070004004050000FC700040D8
:10E820000C050000D5100000A41C0200B71C02005B
:10E830000B794100C81C0200C01C0200A0238022EA
:10E84000A321DB059203C9005A50024900205A5007
:10E850007047C0460C05000074DF704776DF7047D4
:10E8600078DF70477ADF70477CDF70477EDF704764
:10E8700080DF704760DF70472FDF7047002330B5BF
:10E8800087B001A80193FBF76DFD041E1BD1019D0C
:10E890000123002D07D00D4A137010230C4A116874
:10E8A0000B4313600FE002A98860C86009480B7031
:10E8B000FEF7A0FD0823021C041C9A4303D0291C68
:10E8C0002A1CFBF75BFE201C07B030BD692E002020
:10E8D000F02E0020B42E00201FB50368041C187809
:10E8E000072850D802F0E0FD54540454283D3F431B
:10E8F000284A13780133DBB21370274A12789A4200
:10E9000046D8264B01A81B689A8DC2801A8D42807A
:10E91000DA8C02805B8D8380FCF7D6FF112805D04E
:10E92000002803D000210A1CFBF728FEFFF7A6FFF2
:10E93000002100282CD028E0A268002A03D1101C56
:10E94000111CFBF71BFE032301A80370237903713D
:10E9500063794371A3798371E379C371A368836099
:10E960000CE0012200E000220D4B1A7010E004239D
:10E9700001A8037023790371A3794371094B0C211A
:10E980001B68984704E00020011C0A1CFBF7F6FDF9
:10E990001FBDC046F42E0020FC2E0020EC2E0020CF
:10E9A000502E00201C2C0020F0B589B0061CFBF76F
:10E9B0003FFA022E7AD1404B1A780193002A75D083
:10E9C000002403A80394FBF7CDFCA04203D0211C34
:10E9D000221CFBF7D3FD039D002D67D10122374C8C
:10E9E0002368134218D093432360354B1868FBF714
:10E9F00037F8002803D0291C2A1CFBF7BFFD00258F
:10EA000004A80C212F4A0570FAF784FBA84203D012
:10EA1000291C2A1CFBF7B2FD0422236813420ED0E6
:10EA2000934323600D2304A80C21264A0370FAF7B0
:10EA300071FB002803D000210A1CFBF79FFD08276B
:10EA400023681F400AD008221F489343236000F028
:10EA500069FE002825D000210A1C20E020221D1C70
:10EA6000154009D093431848236000F0AFFE0028FA
:10EA700017D0391C3A1C12E01022134211D09343D4
:10EA80002360012304A910480B708D60CD60FEF750
:10EA9000B1FC0822031C934303D0291C2A1CFBF75A
:10EAA0006DFD2368002B01D1019A1370301C01F019
:10EAB000ADFA09B0F0BDC046692E0020F02E00204E
:10EAC000602E0020B1ED0100B42E002037B5041CEB
:10EAD0000D1C0B78002A06D0322B04D1FFF7CEFE96
